:020000040000FA
:1000000008040020C1030000CB030000C903000066
:10001000CD030000CF030000D1030000000000006A
:10002000000000000000000000000000D3030000FA
:10003000D503000000000000D7030000D903000032
:10004000DB030000DD030000DF030000E10300002C
:10005000E3030000E5030000E7030000E9030000FC
:10006000EB030000ED0300000000000000000000B2
:100070000000000000000000000000000000000080
:100080000000000000000000000000000000000070
:100090000000000000000000000000000000000060
:1000A0000000000000000000000000000000000050
:1003C0000B4880470B480047FEE7FEE7FEE7FEE7E5
:1003D000FEE7FEE7FEE7FEE7FEE7FEE7FEE7FEE7F5
:1003E000FEE7FEE7FEE7FEE7FEE7FEE7FEE70000CA
:1003F00001040000290400007047704770470000A6
:1004000040F200004EF60851C0F20000CEF20001AA
:10041000086040F2000047F64001C2F20000C0F25E
:100420007D1101607047000001E010E011E04FF025
:1004300000004FF000014FF000024FF000034FF0BA
:1004400000044FF000054FF000064FF000070128B0
:10045000FDD1032D02D0012D00D02DE04FF003017E
:100460004FF001024FF001034FF00304012D08BFCC
:100470000025032D08BF02254FF00A0706F10106EB
:10048000BE42EBD14FF0000638E04FF001014FF0D3
:1004900003024FF003034FF00104022D08BF0025B3
:1004A000032D08BF01254FF00A0706F10106BE42E1
:1004B000EBD14FF0000636E04FF003014FF00102A0
:1004C0004FF001034FF003044FF0190706F1010646
:1004D000BE42F1D14FF0000610E04FF001014FF0A5
:1004E00003024FF003034FF001044FF0190706F128
:1004F0000106BE42F1D14FF0000614E04FF00201B8
:100500004FF001024FF001034FF003044FF00507D5
:1005100006F10106BE42F1D14FF00006032DB4D022
:10052000022DB2D0D9E74FF001014FF002024FF097
:1005300003034FF001044FF0050706F10106BE4228
:0C054000F1D14FF0000684E740787D0107
:04000005000003C133
:00000001FF
