:020000040000FA
:1000000008040020C1030000CB030000C903000066
:10001000CD030000CF030000D1030000000000006A
:10002000000000000000000000000000D3030000FA
:10003000D503000000000000D7030000D903000032
:10004000DB030000DD030000DF030000E10300002C
:10005000E3030000E5030000E7030000E9030000FC
:10006000EB030000ED0300000000000000000000B2
:100070000000000000000000000000000000000080
:100080000000000000000000000000000000000070
:100090000000000000000000000000000000000060
:1000A0000000000000000000000000000000000050
:1003C0000B4880470B480047FEE7FEE7FEE7FEE7E5
:1003D000FEE7FEE7FEE7FEE7FEE7FEE7FEE7FEE7F5
:1003E000FEE7FEE7FEE7FEE7FEE7FEE7FEE70000CA
:1003F00001040000290400007047704770470000A6
:1004000040F200004EF60851C0F20000CEF20001AA
:10041000086040F2000047F64001C2F20000C0F25E
:100420007D1101607047000001E010E011E04FF025
:1004300000004FF000014FF000024FF000034FF0BA
:1004400000044FF000054FF000064FF000070128B0
:10045000FDD1032D02D0012D00D021E04FF003018A
:100460004FF001024FF001034FF00304012D0CBFC8
:10047000002502254FF000064FF00A074CE04FF030
:1004800001014FF003024FF003034FF00104022D6E
:100490000CBF002501254FF000064FF00A073BE096
:1004A0004FF003014FF001024FF001034FF003043E
:1004B0004FF000064FF019072EE00DE04FF001015C
:1004C0004FF003024FF003034FF001044FF000061A
:1004D0004FF0190720E011E04FF002014FF0010248
:1004E0004FF001034FF003044FF000064FF00507F3
:1004F00012E0032DC3D0022DC1D0DFE74FF0010180
:100500004FF002024FF003034FF001044FF00006DA
:100510004FF0050700E09CE706F10106BE42FBD163
:0405200040787D01A1
:04000005000003C133
:00000001FF
